:020000040800F2
:100000000050002041150008711400087914000800
:1000100081140008891400089114000800000000F1
:100020000000000000000000000000004164000823
:1000300099140008000000002166000869660008A5
:100040008915000889150008891500088915000818
:10005000891500088915000889150008A5140008ED
:1000600089150008891500088915000889150008F8
:1000700089150008891500088915000889150008E8
:1000800089150008891500088915000889150008D8
:1000900089150008891500088915000889150008C8
:1000A00089150008B514000889150008891500088D
:1000B00089150008891500088915000889150008A8
:1000C0008915000889150008891500088915000898
:1000D0008915000889150008891500088915000888
:1000E000891500088915000889150008000000001E
:1000F0000000000000000000000000000000000000
:0C01000000000000000000005FF808F1A3
:1001100010B5054C237833B9044B13B10448AFF341
:1001200000800123237010BD60000020000000004B
:100130003875000808B5034B1BB103490348AFF3FA
:10014000008008BD00000000640000203875000831
:1001500081F0004102E000BF83F0004330B54FEA78
:1001600041044FEA430594EA050F08BF90EA020FE5
:100170001FBF54EA000C55EA020C7FEA645C7FEA78
:10018000655C00F0E2804FEA5454D4EB5555B8BF9B
:100190006D420CDD2C4480EA020281EA030382EA0C
:1001A000000083EA010180EA020281EA0303362D9E
:1001B00088BF30BD11F0004F4FEA01314FF4801C71
:1001C0004CEA113102D0404261EB410113F0004F83
:1001D0004FEA03334CEA133302D0524263EB43033A
:1001E00094EA050F00F0A780A4F10104D5F1200ED8
:1001F0000DDB02FA0EFC22FA05F2801841F1000133
:1002000003FA0EF2801843FA05F359410EE0A5F106
:1002100020050EF1200E012A03FA0EFC28BF4CF037
:10022000020C43FA05F3C01851EBE37101F00045ED
:1002300007D54FF0000EDCF1000C7EEB00006EEBFA
:100240000101B1F5801F1BD3B1F5001F0CD3490884
:100250005FEA30004FEA3C0C04F101044FEA4452DB
:1002600012F5800F80F09A80BCF1004F08BF5FEA62
:10027000500C50F1000041EB045141EA050130BD42
:100280005FEA4C0C404141EB0101013C28BFB1F554
:10029000801FE9D291F0000F04BF01460020B1FA9F
:1002A00081F308BF2033A3F10B03B3F120020CDA72
:1002B0000C3208DD02F1140CC2F10C0201FA0CF050
:1002C00021FA02F10CE002F11402D8BFC2F1200CB5
:1002D00001FA02F120FA0CFCDCBF41EA0C0190406B
:1002E000E41AA2BF01EB0451294330BD6FEA0404B4
:1002F0001F3C1CDA0C340EDC04F11404C4F120029F
:1003000020FA04F001FA02F340EA030021FA04F3B0
:1003100045EA030130BDC4F10C04C4F1200220FA07
:1003200002F001FA04F340EA0300294630BD21FA45
:1003300004F0294630BD94F0000F83F4801306BF0B
:1003400081F480110134013D4EE77FEA645C18BFFF
:100350007FEA655C29D094EA050F08BF90EA020F96
:1003600005D054EA000C04BF1946104630BD91EA8E
:10037000030F1EBF0021002030BD5FEA545C05D191
:100380004000494128BF41F0004130BD14F58004D0
:100390003CBF01F5801130BD01F0004545F0FE4144
:1003A00041F470014FF0000030BD7FEA645C1ABF79
:1003B000194610467FEA655C1CBF0B46024650EAB0
:1003C000013406BF52EA033591EA030F41F40021DC
:1003D00030BD00BF90F0000F04BF0021704730B562
:1003E0004FF4806404F132044FF000054FF0000137
:1003F00050E700BF90F0000F04BF0021704730B5F8
:100400004FF4806404F1320410F0004548BF4042CC
:100410004FF000013EE700BF42004FEAE2014FEA21
:1004200031014FEA02701FBF12F07F4393F07F4FFC
:1004300081F06051704732F07F4208BF704793F0FF
:100440007F4F04BF41F40021704730B54FF4607412
:1004500001F0004521F000411CE700BF50EA010215
:1004600008BF704730B54FF000050AE050EA0102BE
:1004700008BF704730B511F0004502D5404261EB2E
:1004800041014FF4806404F132045FEA915C3FF46F
:10049000D8AE4FF003025FEADC0C18BF03325FEA0C
:1004A000DC0C18BF033202EBDC02C2F1200300FABD
:1004B00003FC20FA02F001FA03FE40EA0E0021FAE2
:1004C00002F11444BDE600BF70B54FF0FF0C4CF4D0
:1004D000E06C1CEA11541DBF1CEA135594EA0C0F82
:1004E00095EA0C0F00F0DEF82C4481EA030621EABD
:1004F0004C5123EA4C5350EA013518BF52EA0335F8
:1005000041F4801143F4801338D0A0FB02CE4FF0A9
:100510000005E1FB02E506F00042E0FB03E54FF0D9
:100520000006E1FB03569CF0000F18BF4EF0010ED1
:10053000A4F1FF04B6F5007F64F5407404D25FEACD
:100540004E0E6D4146EB060642EAC62141EA555180
:100550004FEAC52040EA5E504FEACE2EB4F1FD0CC2
:1005600088BFBCF5E06F1ED8BEF1004F08BF5FEA40
:10057000500E50F1000041EB045170BD06F00046F2
:1005800046EA010140EA020081EA0301B4EB5C049F
:10059000C2BFD4EB0C0541EA045170BD41F4801197
:1005A0004FF0000E013C00F3AB8014F1360FDEBFBC
:1005B000002001F0004170BDC4F10004203C35DA98
:1005C0000C341BDC04F11404C4F1200500FA05F31B
:1005D00020FA04F001FA05F240EA020001F00042BC
:1005E00021F0004110EBD37021FA04F642EB060132
:1005F0005EEA430E08BF20EAD37070BDC4F10C045C
:10060000C4F1200500FA04F320FA05F001FA04F21F
:1006100040EA020001F0004110EBD37041F100010B
:100620005EEA430E08BF20EAD37070BDC4F1200516
:1006300000FA05F24EEA020E20FA04F301FA05F27E
:1006400043EA020321FA04F001F0004121FA04F226
:1006500020EA020000EBD3705EEA430E08BF20EAF6
:10066000D37070BD94F0000F0FD101F00046400030
:1006700041EB010111F4801F08BF013CF7D041EAB2
:10068000060195F0000F18BF704703F000465200B6
:1006900043EB030313F4801F08BF013DF7D043EA87
:1006A0000603704794EA0C0F0CEA135518BF95EA3D
:1006B0000C0F0CD050EA410618BF52EA4306D1D1C4
:1006C00081EA030101F000414FF0000070BD50EAE3
:1006D000410606BF1046194652EA430619D094EA6D
:1006E0000C0F02D150EA013613D195EA0C0F05D157
:1006F00052EA03361CBF104619460AD181EA0301AB
:1007000001F0004141F0FE4141F470014FF0000062
:1007100070BD41F0FE4141F4780170BD70B54FF0FD
:10072000FF0C4CF4E06C1CEA11541DBF1CEA13557D
:1007300094EA0C0F95EA0C0F00F0A7F8A4EB05045F
:1007400081EA030E52EA03354FEA013100F0888056
:100750004FEA03334FF0805545EA131343EA12631F
:100760004FEA022245EA111545EA10654FEA0026D4
:100770000EF000419D4208BF964244F1FD0404F58D
:10078000407402D25B084FEA3202B61A65EB0305E9
:100790005B084FEA32024FF480104FF4002CB6EBA6
:1007A000020E75EB030E22BFB61A754640EA0C0026
:1007B0005B084FEA3202B6EB020E75EB030E22BF66
:1007C000B61A754640EA5C005B084FEA3202B6EBA7
:1007D000020E75EB030E22BFB61A754640EA9C0066
:1007E0005B084FEA3202B6EB020E75EB030E22BF36
:1007F000B61A754640EADC0055EA060E18D04FEAF4
:10080000051545EA16754FEA06164FEAC30343EA93
:1008100052734FEAC2025FEA1C1CC0D111F4801F60
:100820000BD141EA00014FF000004FF0004CB6E759
:1008300011F4801F04BF01430020B4F1FD0C88BFF8
:10084000BCF5E06F3FF6AFAEB5EB030C04BFB6EB03
:10085000020C5FEA500C50F1000041EB045170BDF6
:100860000EF0004E4EEA113114EB5C04C2BFD4EB23
:100870000C0541EA045170BD41F480114FF0000EA7
:10088000013C90E645EA060E8DE60CEA135594EA23
:100890000C0F08BF95EA0C0F3FF43BAF94EA0C0F26
:1008A0000AD150EA01347FF434AF95EA0C0F7FF49B
:1008B00025AF104619462CE795EA0C0F06D152EAEF
:1008C00003353FF4FDAE1046194622E750EA4106D3
:1008D00018BF52EA43067FF4C5AE50EA41047FF4E4
:1008E0000DAF52EA43057FF4EBAE12E74A0011D296
:1008F00012F5001211D20DD56FF47873B3EB62527A
:100900000ED44FEAC12343F0004343EA505323FA85
:1009100002F070474FF00000704750EA013002D1FA
:100920004FF0FF3070474FF00000704780B400AFC9
:10093000064B01225A60054B13221A70034B00220A
:100940009A7300BFBD4680BC704700BF7C0000208A
:1009500080B586B002AF0346FB71FB793B73074B52
:100960005B6807F10C02009301234621044801F063
:100970006FFD00BF1037BD4680BD00BF7C0000206A
:100980001001002080B500AF0120FFF7E1FF072034
:10099000FFF7DEFF034B1B781846FFF7D9FF00BFB8
:1009A00080BD00BF7C00002080B584B002AF002372
:1009B000BB80184B5B685B003A1D00930223462105
:1009C000154801F043FE3B791A46124B9A813B7958
:1009D0001B029BB27A7913449AB20E4B9A810D4B4B
:1009E0009B891846FFF706FD4FF033320B4BFFF79C
:1009F00095FE02460B4610461946FFF777FF034661
:100A00009AB2044B9A81034B9B8918460837BD461E
:100A100080BD00BF7C000020100100203333F33F75
:100A200080B586B002AF0346FB71FB7923F00F035C
:100A3000FB73FB791B01BB73FB7B43F00C03DBB245
:100A40003B72FB7B43F00803DBB27B72BB7B43F062
:100A50000C03DBB2BB72BB7B43F00803DBB2FB725F
:100A600007F108020323009304234E21034801F0F9
:100A7000EFFC00BF1037BD4680BD00BFBC000020AA
:100A800080B586B002AF0346FB71FB7923F00F03FC
:100A9000FB73FB791B01BB73FB7B43F00D03DBB2E4
:100AA0003B72FB7B43F00903DBB27B72BB7B43F001
:100AB0000D03DBB2BB72BB7B43F00903DBB2FB72FD
:100AC00007F108020323009304234E21034801F099
:100AD000BFFC00BF1037BD4680BD00BFBC0000207A
:100AE00080B500AF3320FFF79BFF3220FFF798FF60
:100AF000322000F07DFD2820FFF792FF322000F029
:100B000077FD0120FFF78CFF322000F071FD0620F9
:100B1000FFF786FF322000F06BFD0C20FFF780FF0F
:100B2000322000F065FD0220FFF77AFF322000F04E
:100B30005FFD8020FFF774FF00BF80BD80B582B0ED
:100B400000AF786006E07B685A1C7A601B78184614
:100B5000FFF796FF7B681B78002BF4D100BF00BF26
:100B60000837BD4680BD80B584B000AF786039607D
:100B70007B68012B08D17B68DAB23B68DBB2134497
:100B8000DBB27F33FB7308E03B68DBB24033DBB2A0
:100B90005BB263F07F035BB2FB73FB7B1846FFF72E
:100BA0003FFF00BF1037BD4680BD000080B500AFDD
:100BB00000F0ECFC00F056F800F04AF900F0ECF818
:100BC00000F018F900F0AAF8194800F00DFE4FF4F3
:100BD000FA7000F00DFDFFF7A9FEFFF7D3FEFFF757
:100BE0007FFF03F065FA134A0021134803F0C6FAA9
:100BF0000346124A1360124A0021124803F0BEFA5B
:100C00000346114A1360114A0021114803F0B6FA55
:100C10000346104A1360104A0021104803F0AEFA50
:100C200003460F4A136003F075FA00BFFDE700BFEB
:100C30008C000020B87500089D0F0008640100209A
:100C4000DC750008C10F000868010020007600086C
:100C5000F11000086C010020247600080111000842
:100C60007001002080B594B000AF07F1280328225E
:100C70000021184605F07AFF07F1140300221A60DC
:100C80005A609A60DA601A613B1D00221A605A604D
:100C90009A60DA600123BB624FF48033FB62002369
:100CA0003B630123BB6302237B644FF48033BB644B
:100CB0004FF4E013FB6407F12803184602F0B8FA7A
:100CC0000346002B01D000F07BFA0F237B61022347
:100CD000BB610023FB614FF480633B6200237B62B6
:100CE00007F114030221184602F024FD0346002BED
:100CF00001D000F065FA02237B604FF40043FB60F3
:100D00003B1D184602F0D4FE0346002B01D000F034
:100D100057FA00BF5037BD4680BD000080B584B093
:100D200000AF3B1D00221A605A609A60184B194AA6
:100D30001A60174B00229A60154B01221A73144B4C
:100D400000221A75124B4FF46022DA61104B002218
:100D50005A600F4B01221A610D4800F06DFC0346EA
:100D6000002B01D000F02CFA03237B600123BB6031
:100D70000023FB603B1D1946054800F0E3FD0346D8
:100D8000002B01D000F01CFA00BF1037BD4680BD1B
:100D90008C0000200024014080B500AF124B134AA4
:100DA0001A60114B124A5A600F4B00229A600E4B88
:100DB0000022DA600C4B4FF480421A610A4B002289
:100DC0005A61094B00229A61074B0022DA61064BF7
:100DD00000221A62044801F0F7F90346002B01D003
:100DE00000F0EEF900BF80BDBC00002000540040C0
:100DF000801A060080B500AF124B134A1A60114BDF
:100E0000124A5A600F4B00229A600E4B0022DA60A1
:100E10000C4B4FF480421A610A4B00225A61094B75
:100E200000229A61074B0022DA61064B00221A6207
:100E3000044801F0C9F90346002B01D000F0C0F9C5
:100E400000BF80BD1001002000580040801A06003D
:100E500080B588B000AF07F1100300221A605A6015
:100E60009A60DA60374B9B69364A43F0100393610E
:100E7000344B9B6903F01003FB60FB68314B9B69AB
:100E8000304A43F0200393612E4B9B6903F020030B
:100E9000BB60BB682B4B9B692A4A43F004039361F8
:100EA000284B9B6903F004037B607B68254B9B699F
:100EB000244A43F008039361224B9B6903F0080323
:100EC0003B603B6800224FF400511F4801F032F9AB
:100ED000002204211D4801F02DF94FF400533B611D
:100EE00001237B610023BB610223FB6107F1100337
:100EF0001946154800F09AFF02233B61144B7B61B1
:100F00000023BB6107F110031946104800F08EFF63
:100F100004233B6101237B610223BB610223FB614C
:100F200007F110031946094800F080FF002205214F
:100F3000072000F050FF072000F069FF00BF2037B6
:100F4000BD4680BD00100240001001400008014075
:100F50000000111080B483B000AF0346FB80FB8813
:100F6000022B0FD10A4B1B78012B08D1094B1B68B0
:100F70000133084A1360084B01221A7002E0044B47
:100F800001221A7000BF0C37BD4680BC704700BFFD
:100F9000800100207C0100207801002080B582B013
:100FA00000AF78604FF40051044801F0DBF84FF4D3
:100FB000FA7003F08DF900BFF4E700BF00100140A4
:100FC000F0B593B006AF786002210120FFF7CBFDAA
:100FD0003F4B1B78DBB23F4AA2FB0323DB08DBB2AB
:100FE0009C463B4B1B78DAB23A4BA3FB0213D90861
:100FF0000B469B000B445B00D31ADBB29E46364B7C
:101000001B78DBB2334AA2FB0323DB08DBB21C46AE
:10101000314B1B78DAB22F4BA3FB0213D9080B46D6
:101020009B000B445B00D31ADBB21D462B4B1B8885
:101030009BB22B4AA2FB03235B099BB21E46274BA4
:101040001B889BB2234AA2FB0323DB089AB2214BE5
:10105000A3FB0213D9080B469B000B445B00D31A79
:101060009BB23B601D4B1B889AB21A4BA3FB021329
:10107000D9080B469B000B445B00D31A9BB207F1C7
:101080001C0004933B6803930296019500947346F9
:101090006246144905F04AFD07F11C031846FFF7A4
:1010A0004DFD00210220FFF75EFD0F4B1A6807F18E
:1010B00008030E49184605F039FD07F108031846E4
:1010C000FFF73CFD0A2003F003F900BF7CE700BFF7
:1010D00077010020CDCCCCCC76010020740100201B
:1010E0001F85EB517C7500087C0100209475000879
:1010F00080B582B000AF7860642003F0E9F8FBE7C8
:1011000080B582B000AF7860FFF74EFC0346642BD9
:1011100034D91E4B1B78DBB2012B0CD100211C4BA8
:101120000A461A701B4B0A461A701B4B00221A8083
:10113000164B00221A70184B1B889BB201339BB2CE
:10114000154A19461180B3F57A7F1AD1124B002245
:101150001A800F4B1B78DBB20133DBB20C4A194605
:1011600011703C2B0DD10B4B1B78DBB20133DAB283
:10117000084B1A70064B00221A7002E0034B012242
:101180001A70012003F0A4F8BEE700BF7801002028
:1011900076010020770100207401002080B582B024
:1011A00000AF78607B681B68044A934201D100F06D
:1011B00003FA00BF0837BD4680BD00BF002C0140C8
:1011C00080B400AF72B600BF00BFFDE780B584B049
:1011D00000AF184B9B69174A43F001039361154B0D
:1011E0009B6903F00103BB60BB68124BDB69114ACA
:1011F00043F08053D3610F4BDB6903F080537B6076
:101200007B6800220F216FF0010000F0E4FD0A4B23
:101210005B68FB60FB6823F0E063FB60FB6843F006
:101220000073FB60044AFB68536000BF1037BD4683
:1012300080BD00BF001002400000014080B588B0B2
:1012400000AF786007F1100300221A605A609A60BC
:10125000DA607B681B68144A934221D1134B9B6967
:10126000124A43F400739361104B9B6903F40073BB
:10127000FB60FB680D4B9B690C4A43F004039361D0
:101280000A4B9B6903F00403BB60BB6808233B6106
:1012900003237B6107F110031946054800F0C6FDE2
:1012A00000BF2037BD4680BD002401400010024031
:1012B0000008014080B58AB000AF786007F11803DC
:1012C00000221A605A609A60DA607B681B682B4AB9
:1012D000934224D12A4B9B69294A43F00803936126
:1012E000274B9B6903F008037B617B69C023BB61CB
:1012F0001223FB6103237B6207F11803194621487F
:1013000000F094FD1E4BDB691D4A43F40013D361CA
:101310001B4BDB6903F400133B613B6929E07B68ED
:101320001B68194A934224D1154B9B69144A43F018
:1013300008039361124B9B6903F00803FB60FB6891
:101340004FF44063BB611223FB6103237B6207F10F
:10135000180319460B4800F069FD094BDB69084A80
:1013600043F48003D361064BDB6903F48003BB6065
:10137000BB6800BF2837BD4680BD00BF0054004099
:1013800000100240000C01400058004080B58CB0B5
:1013900000AF78600023BB6200237B62002387F8E4
:1013A0002F302E4B9B692D4A43F4006393612B4BE6
:1013B0009B6903F40063BB60BB6807F10C0207F193
:1013C00010031146184602F025FB02F00FFBB8622D
:1013D000BB6A234AA2FB03239B0C013B7B62214B8C
:1013E000214A1A601F4B40F2E732DA601D4A7B6ADD
:1013F00053601C4B00221A611A4B00229A60194B51
:1014000000229A61174802F009FC034687F82F3042
:1014100097F82F30002B1BD1124802F057FC0346DF
:1014200087F82F3097F82F30002B11D1192000F0BA
:10143000EEFC7B680F2B08D800227968192000F099
:10144000CAFC0A4A7B68136002E0012387F82F3048
:1014500097F82F3018463037BD4680BD0010024047
:1014600083DE1B4384010020002C01400400002087
:1014700080B400AF00BFFDE780B400AF00BFFDE760
:1014800080B400AF00BFFDE780B400AF00BFFDE750
:1014900080B400AF00BFFDE780B400AF00BFBD4621
:1014A00080BC704780B500AF022000F075FE00BF21
:1014B00080BD000080B500AF024802F059FC00BFBB
:1014C00080BD00BF8401002080B586B000AF786089
:1014D000144A154BD31A7B617B693B61134B1B6824
:1014E000002B02D1114B124A1A60104B1A687B680C
:1014F00013443A699A4207D205F096FB03460C2240
:101500001A604FF0FF3309E0084B1B68FB60074B84
:101510001A687B681344054A1360FB68184618373D
:10152000BD4680BD0050002000040000CC0100201A
:10153000001D002080B400AF00BFBD4680BC7047D6
:10154000FFF7F8FF0B480C490C4A002302E0D4587F
:10155000C4500433C4188C42F9D3094A094C0023FF
:1015600001E013600432A242FBD305F063FBFFF7F6
:101570001DFB70470000002060000020B0760008CE
:1015800060000020FC1C0020FEE7000080B500AFDA
:10159000084B1B68074A43F010031360032000F058
:1015A0000FFC0F20FFF7F2FEFFF710FE0023184696
:1015B00080BD00BF0020024080B400AF054B1B7807
:1015C0001A46054B1B681344034A136000BFBD460F
:1015D00080BC704708000020D001002080B400AF1C
:1015E000024B1B681846BD4680BC7047D0010020E6
:1015F00080B584B000AF7860FFF7F0FFB8607B681B
:10160000FB60FB68B3F1FF3F05D00A4B1B781A461D
:10161000FB681344FB6000BFFFF7E0FF0246BB68B6
:10162000D31AFA689A42F7D800BF00BF1037BD46F8
:1016300080BD00BF0800002080B586B000AF786094
:101640000023FB7500233B610023BB600023FB608C
:101650007B68002B01D10123BEE07B689B68002BD7
:101660007B689B6A002B09D17B680022DA627B6869
:10167000002283F824207868FFF7E0FD786800F006
:10168000B3FA0346FB757B689B6A03F01003002BDB
:1016900040F09980FB7D002B40F095807B689B6A31
:1016A00023F4885323F0020343F002027B689A621A
:1016B0007B685A687B68DB691A437B681B7B5B002D
:1016C0001343BA681343BB607B689B68B3F5807FA4
:1016D00003D07B689B68012B02D14FF4807300E03C
:1016E00000233A6913433B617B681B7D012B19D1B1
:1016F0007B681B7B002B09D17B689B69013B5A03EC
:101700003B69134343F400633B610BE07B689B6AD6
:1017100043F020027B689A627B68DB6A43F0010237
:101720007B68DA627B681B685B6823F469417B68CD
:101730001B683A690A435A607B681B689A68284BA1
:1017400013407A681268B9680B4393607B689B68A2
:10175000B3F5807F03D07B689B68012B04D17B6845
:101760001B69013B1B05FB607B681B68DB6A23F47C
:1017700070017B681B68FA680A43DA627B681B6841
:101780009A68184B1340BA689A420BD17B680022C2
:10179000DA627B689B6A23F0030343F001027B68F3
:1017A0009A6218E07B689B6A23F0120343F01002F0
:1017B0007B689A627B68DB6A43F001027B68DA62CD
:1017C0000123FB7507E07B689B6A43F010027B688E
:1017D0009A620123FB75FB7D18461837BD4680BD14
:1017E000FDF7E1FFFE0E1FFF80B584B000AF78600B
:1017F0000023FB737B6893F82430012B01D1022373
:1018000098E07B68012283F82420786800F092F940
:101810000346FB73FB7B002B40F087807B689B6A51
:1018200023F4407323F0010343F480727B689A62CF
:101830007B681B68414A934205D1414B5B6803F4C6
:101840007023002B15D17B689B6A23F480127B6880
:101850009A627B681B685B6803F48063002B26D068
:101860007B689B6A23F4405343F480527B689A62FE
:101870001DE07B689B6A43F480127B689A627B68F8
:101880001B682F4A934204D07B681B682B4A934203
:101890000DD12B4B5B6803F48063002B07D07B6872
:1018A0009B6A23F4405343F480527B689A627B68BE
:1018B0009B6A03F48053002B06D07B68DB6A23F01D
:1018C00006027B68DA6202E07B680022DA627B68EB
:1018D000002283F824207B681B686FF002021A60E4
:1018E0007B681B689B6803F46023B3F5602F13D1FA
:1018F0007B681B68114A934205D1114B5B6803F466
:101900007023002B08D17B681B689A687B681B6872
:1019100042F4A0029A600CE07B681B689A687B68BE
:101920001B6842F480129A6003E07B68002283F80F
:101930002420FB7B18461037BD4680BD002801409F
:101940000024014080B485B000AF78603960002386
:10195000FB730023BB607B6893F82430012B01D11B
:101960000223DCE07B68012283F824203B685B686B
:10197000062B1CD87B681B68596B3B685A6813465A
:101980009B001344053B1F2202FA03F3DB4319407B
:101990003B6818683B685A6813469B001344053B34
:1019A00000FA03F27B681B680A435A633CE03B6819
:1019B0005B680C2B1CD87B681B68196B3B685A68EA
:1019C00013469B001344233B1F2202FA03F3DB431D
:1019D00019403B6818683B685A6813469B001344DB
:1019E000233B00FA03F27B681B680A431A631BE07F
:1019F0007B681B68D96A3B685A6813469B0013448E
:101A0000413B1F2202FA03F3DB4319403B6818688D
:101A10003B685A6813469B001344413B00FA03F2AB
:101A20007B681B680A43DA623B681B68092B1CD978
:101A30007B681B68D9683B681A6813465B001344CF
:101A40001E3B072202FA03F3DB4319403B68986808
:101A50003B681A6813465B0013441E3B00FA03F20E
:101A60007B681B680A43DA6019E07B681B681969A8
:101A70003B681A6813465B001344072202FA03F31B
:101A8000DB4319403B6898683B681A6813465B0063
:101A9000134400FA03F27B681B680A431A613B682F
:101AA0001B68102B03D03B681B68112B32D17B685D
:101AB0001B681D4A934225D17B681B689B6803F411
:101AC0000003002B26D17B681B689A687B681B6823
:101AD00042F400029A603B681B68102B1AD1134B2A
:101AE0001B68134AA2FB03239A0C13469B00134462
:101AF0005B00BB6002E0BB68013BBB60BB68002BC6
:101B0000F9D107E07B689B6A43F020027B689A6208
:101B10000123FB737B68002283F82420FB7B18469B
:101B20001437BD4680BC70470024014000000020EF
:101B300083DE1B4380B584B000AF78600023FB6078
:101B40000023BB607B681B689B6803F00103012BCB
:101B500040D07B681B689A687B681B6842F0010272
:101B60009A601F4B1B681F4AA2FB03239B0CBB60A0
:101B700002E0BB68013BBB60BB68002BF9D1FFF7FB
:101B80002DFDF8601FE0FFF729FD0246FB68D31A20
:101B9000022B18D97B681B689B6803F00103012B9B
:101BA00011D07B689B6A43F010027B689A627B6865
:101BB000DB6A43F001027B68DA627B68002283F80B
:101BC0002420012307E07B681B689B6803F0010366
:101BD000012BD8D1002318461037BD4680BD00BF69
:101BE0000000002083DE1B4380B584B000AF786026
:101BF0000023FB607B681B689B6803F00103012BDB
:101C00002ED17B681B689A687B681B6822F00102F2
:101C10009A60FFF7E3FCF8601BE0FFF7DFFC024689
:101C2000FB68D31A022B14D97B681B689B6803F0EE
:101C30000103012B0DD17B689B6A43F010027B6886
:101C40009A627B68DB6A43F001027B68DA620123F7
:101C500007E07B681B689B6803F00103012BDCD065
:101C6000002318461037BD4680BD000080B485B003
:101C700000AF78607B6803F00703FB600C4BDB6808
:101C8000BB60BA684FF6FF031340BB60FB681A02E3
:101C9000BB68134343F0BF6343F40033BB60044AA3
:101CA000BB68D36000BF1437BD4680BC704700BF1F
:101CB00000ED00E080B400AF044BDB681B0A03F0CA
:101CC00007031846BD4680BC704700BF00ED00E02A
:101CD00080B483B000AF0346FB7197F90730002B47
:101CE0000BDBFB7903F01F02064997F907305B090C
:101CF000012000FA02F241F8232000BF0C37BD4654
:101D000080BC704700E100E080B483B000AF0346C0
:101D10003960FB7197F90730002B0ADB3B68DAB2B8
:101D20000C4997F907301201D2B20B4483F8002313
:101D30000AE03B68DAB20849FB7903F00F03043B81
:101D40001201D2B20B441A7600BF0C37BD4680BCDC
:101D5000704700BF00E100E000ED00E080B489B012
:101D600000AFF860B9607A60FB6803F00703FB61BD
:101D7000FB69C3F10703042B28BF0423BB61FB6984
:101D80000433062B02D9FB69033B00E000237B618F
:101D90004FF0FF32BB6902FA03F3DA43BB681A4023
:101DA0007B699A404FF0FF317B6901FA03F3D94315
:101DB0007B680B40134318462437BD4680BC7047F0
:101DC00080B582B000AF78607868FFF74FFF00BF42
:101DD0000837BD4680BD80B586B000AF0346B96008
:101DE0007A60FB7300237B61FFF764FF78617A6898
:101DF000B9687869FFF7B2FF024697F90F301146CC
:101E00001846FFF781FF00BF1837BD4680BD80B57B
:101E100082B000AF0346FB7197F907301846FFF711
:101E200057FF00BF0837BD4680BD000080B48BB0AF
:101E300000AF7860396000237B6200233B6269E178
:101E400001227B6A02FA03F3FB613B681B68FA69B3
:101E50001340BB61BA69FB699A4240F058813B6804
:101E60005B689A4A93425ED0984A934275D8984AE2
:101E7000934258D0964A93426FD8964A934252D092
:101E8000944A934269D8944A93424CD0924A9342DE
:101E900063D8924A934246D0904A93425DD8122B1F
:101EA0002AD8122B59D801A252F823F0271F000874
:101EB000011F0008131F0008551F00085B1F0008C2
:101EC0005B1F00085B1F00085B1F00085B1F00080A
:101ED0005B1F00085B1F00085B1F00085B1F0008FA
:101EE0005B1F00085B1F00085B1F00085B1F0008EA
:101EF000091F00081D1F0008794A934213D02CE0E7
:101F00003B68DB683B6229E03B68DB6804333B628B
:101F100024E03B68DB6808333B621FE03B68DB681A
:101F20000C333B621AE03B689B68002B02D1042310
:101F30003B6213E03B689B68012B05D108233B62A1
:101F40007B68FA691A6109E008233B627B68FA69D9
:101F50005A6103E000233B6200E000BFBB69FF2B36
:101F600001D87B6801E07B6804337B61BB69FF2B90
:101F700002D87B6A9B0002E07B6A083B9B003B61C6
:101F80007B691A680F213B6901FA03F3DB431A40AE
:101F9000396A3B6901FA03F31A437B691A603B68AB
:101FA0005B6803F08053002B00F0B1804D4B9B69C0
:101FB0004C4A43F0010393614A4B9B6903F00103D0
:101FC000BB60BB68484A7B6A9B08023352F82330E7
:101FD000FB607B6A03F003039B000F2202FA03F30A
:101FE000DB43FA681340FB607B68404A934213D09E
:101FF0007B683F4A93420DD07B683E4A934207D0AC
:102000007B683D4A934201D1032306E0042304E0A8
:10201000022302E0012300E000237A6A02F00302B7
:1020200092009340FA681343FB602F497B6A9B0838
:102030000233FA6841F823203B685B6803F480139D
:10204000002B06D02D4B9A682C49BB6913438B603B
:1020500006E02A4B9A68BB69DB43284913408B6032
:102060003B685B6803F40013002B06D0234BDA684F
:102070002249BB691343CB6006E0204BDA68BB6999
:10208000DB431E491340CB603B685B6803F40033BD
:10209000002B06D0194B5A681849BB6913434B6093
:1020A00006E0164B5A68BB69DB43144913404B608A
:1020B0003B685B6803F48033002B21D00F4B1A6818
:1020C0000E49BB6913430B6021E000BF00003210D2
:1020D000000031100000221000002110000012103A
:1020E00000001110001002400000014000080140F3
:1020F000000C0140001001400014014000040140A8
:102100000B4B1A68BB69DB43094913400B607B6AC0
:1021100001337B623B681A687B6A22FA03F3002B67
:102120007FF48EAE00BF00BF2C37BD4680BC704729
:102130000004014080B483B000AF78600B467B8020
:1021400013467B707B78002B03D07A887B681A61FA
:1021500003E07B881A047B681A6100BF0C37BD4618
:1021600080BC704780B485B000AF78600B467B8040
:102170007B68DB68FB607A88FB6813401A04FB68A5
:10218000D9437B880B401A437B681A6100BF143720
:10219000BD4680BC7047000080B582B000AF0346EA
:1021A000FB80084B5A69FB881340002B06D0054A78
:1021B000FB885361FB881846FEF7CCFE00BF08374A
:1021C000BD4680BD0004014080B584B000AF78609A
:1021D0007B68002B01D101232BE17B6893F83D3014
:1021E000DBB2002B06D17B68002283F83C207868A4
:1021F000FFF760F87B68242283F83D207B681B682A
:102200001A687B681B6822F001021A607B681B68F1
:102210001A687B681B6842F400421A607B681B687E
:102220001A687B681B6822F400421A6001F0CAFB3E
:10223000F8607B685B68814A934207D8FB68804AF4
:10224000934294BF01230023DBB206E0FB687D4A82
:10225000934294BF01230023DBB2002B01D0012362
:10226000E7E0FB68784AA2FB03239B0CBB607B681A
:102270001B685B6823F03F017B681B68BA680A43F0
:102280005A607B681B681B6A23F03F017B685B68B0
:102290006A4A934202D8BB68013309E0BB684FF435
:1022A000967202FB03F3694AA2FB03239B090133E5
:1022B0007A6812680B4313627B681B68DB6923F43E
:1022C0004F4222F0FF027B685B685C498B4219D861
:1022D000FB68591E7B685B685B00B1FBF3F3591C1C
:1022E00040F6FC730B40002B0AD0FB68591E7B683C
:1022F0005B685B00B1FBF3F30133C3F30B0351E005
:1023000004234FE07B689B68002B11D1FB68581EAB
:102310007B6859680B465B000B44B0FBF3F3013359
:10232000C3F30B03002B0CBF01230023DBB212E02D
:10233000FB68581E7B6859680B469B000B4499004C
:102340000B44B0FBF3F30133C3F30B03002B0CBFBF
:1023500001230023DBB2002B01D0012322E07B68A4
:102360009B68002B0ED1FB68581E7B6859680B4692
:102370005B000B44B0FBF3F30133C3F30B0343F4F3
:1023800000430FE0FB68581E7B6859680B469B00B2
:102390000B4499000B44B0FBF3F30133C3F30B037D
:1023A00043F44043796809681343CB617B681B6839
:1023B0001B6823F0C0017B68DA697B681B6A1A43DB
:1023C0007B681B680A431A607B681B689B6823F460
:1023D000034323F0FF037A6811697A68D2681143D6
:1023E0007A6812680B4393607B681B68DB6823F094
:1023F000FF017B685A697B689B691A437B681B688D
:102400000A43DA607B681B681A687B681B6842F0C5
:1024100001021A607B6800221A647B68202283F81C
:102420003D207B6800221A637B68002283F83E20EF
:10243000002318461037BD4680BD00BFA0860100AE
:102440007F841E00FF083D0083DE1B43D34D6210D6
:1024500080B588B002AFF8607A601A460B467B817F
:1024600013463B81FFF7BAF87861FB6893F83D307B
:10247000DBB2202B40F0E0807B690093192301221E
:102480007049F86800F09EFC0346002B01D002233F
:10249000D3E0FB6893F83C30012B01D10223CCE060
:1024A000FB68012283F83C20FB681B681B6803F073
:1024B0000103012B07D0FB681B681A68FB681B68C7
:1024C00042F001021A60FB681B681A68FB681B680F
:1024D00022F400621A60FB68212283F83D20FB6829
:1024E000102283F83E20FB6800221A64FB687A6899
:1024F0005A62FB683A895A85FB685B8D9AB2FB6821
:102500001A85FB68504ADA6279897B693A6AF86809
:1025100000F008FB0346002B01D001238DE00023CF
:102520003B61FB681B685B693B61FB681B689B69DF
:102530003B613B6966E07A69396AF86800F05CFDE6
:102540000346002B0DD0FB681B6C042B07D1FB68E6
:102550001B681A68FB681B6842F400721A6001234A
:102560006BE0FB685B6A1A78FB681B681A61FB68A2
:102570005B6A5A1CFB685A62FB685B8D9BB2013B2D
:102580009AB2FB685A85FB681B8D013B9AB2FB68C7
:102590001A85FB681B685B6903F00403042B1BD1DD
:1025A000FB681B8D002B17D0FB685B6A1A78FB68F1
:1025B0001B681A61FB685B6A5A1CFB685A62FB68FD
:1025C0005B8D9BB2013B9AB2FB685A85FB681B8D01
:1025D000013B9AB2FB681A857A69396AF86800F09B
:1025E00053FD0346002B0DD0FB681B6C042B07D159
:1025F000FB681B681A68FB681B6842F400721A606B
:1026000001231AE0FB681B8D002B94D1FB681B682B
:102610001A68FB681B6842F400721A60FB6820228B
:1026200083F83D20FB68002283F83E20FB680022EF
:1026300083F83C20002300E0022318461837BD46EB
:1026400080BD00BF020010000000FFFF80B58CB00D
:1026500002AFF8607A601A460B467B8113463B81D5
:1026600000233B62FEF7BAFF7862FB6893F83D30C7
:10267000DBB2202B40F04B827B6A009319230122AE
:102680007F49F86800F09EFB0346002B01D002232F
:102690003EE2FB6893F83C30012B01D1022337E284
:1026A000FB68012283F83C20FB681B681B6803F071
:1026B0000103012B07D0FB681B681A68FB681B68C5
:1026C00042F001021A60FB681B681A68FB681B680D
:1026D00022F400621A60FB68222283F83D20FB6826
:1026E000102283F83E20FB6800221A64FB687A6897
:1026F0005A62FB683A895A85FB685B8D9AB2FB681F
:102700001A85FB685F4ADA6279897B6A3A6BF868F6
:1027100000F08AFA0346002B01D00123F8E1FB68A0
:102720001B8D002B13D10023FB61FB681B685B69C9
:10273000FB61FB681B689B69FB61FB69FB681B68AD
:102740001A68FB681B6842F400721A60CCE1FB68EF
:102750001B8D012B1ED1FB681B681A68FB681B6868
:1027600022F480621A6072B600BF0023BB61FB686E
:102770001B685B69BB61FB681B689B69BB61BB69CC
:10278000FB681B681A68FB681B6842F400721A60D9
:1027900062B635E0FB681B8D022B1ED1FB681B68FF
:1027A0001A68FB681B6842F400621A6072B600BFC8
:1027B00000237B61FB681B685B697B61FB681B68AE
:1027C0009B697B617B69FB681B681A68FB681B68F7
:1027D00022F480621A6062B612E0FB681B681A6815
:1027E000FB681B6842F480621A6000233B61FB684F
:1027F0001B685B693B61FB681B689B693B613B69CC
:1028000072E1FB681B8D032B00F21F81FB681B8D9F
:10281000012B23D17A6A396BF86800F07DFC0346FE
:10282000002B01D0012373E1FB681B681A69FB6868
:102830005B6AD2B21A70FB685B6A5A1CFB685A6208
:10284000FB681B8D013B9AB2FB681A85FB685B8DA8
:102850009BB2013B9AB2FB685A8545E1FB681B8D30
:10286000022B52D17B6A00933B6B00220649F86829
:1028700000F0A8FA0346002B08D0012348E100BF6E
:10288000020010000000FFFF0400010072B600BF4C
:10289000FB681B681A68FB681B6842F400721A60C8
:1028A000FB681B681A69FB685B6AD2B21A70FB6826
:1028B0005B6A5A1CFB685A62FB681B8D013B9AB22B
:1028C000FB681A85FB685B8D9BB2013B9AB2FB6883
:1028D0005A8562B600BFFB681B681A69FB685B6AB1
:1028E000D2B21A70FB685B6A5A1CFB685A62FB68BA
:1028F0001B8D013B9AB2FB681A85FB685B8D9BB20E
:10290000013B9AB2FB685A85EEE07B6A00933B6B11
:1029100000228149F86800F055FA0346002B01D0E7
:102920000123F5E0FB681B681A68FB681B6822F44A
:1029300080621A6072B600BFFB681B681A69FB6888
:102940005B6AD2B21A70FB685B6A5A1CFB685A62F7
:10295000FB681B8D013B9AB2FB681A85FB685B8D97
:102960009BB2013B9AB2FB685A856C4B1B68DB0833
:102970006B4AA2FB03231A0A13469B001344DA0096
:10298000D31A3B623B6A013B3B623B6A002B18D186
:10299000FB6800221A63FB68202283F83D20FB6855
:1029A000002283F83E20FB681B6C43F02002FB688A
:1029B0001A6462B600BFFB68002283F83C20012342
:1029C000A6E0FB681B685B6903F00403042BD9D104
:1029D000FB681B681A68FB681B6842F400721A6087
:1029E000FB681B681A69FB685B6AD2B21A70FB68E5
:1029F0005B6A5A1CFB685A62FB681B8D013B9AB2EA
:102A0000FB681A85FB685B8D9BB2013B9AB2FB6841
:102A10005A8562B600BFFB681B681A69FB685B6A6F
:102A2000D2B21A70FB685B6A5A1CFB685A62FB6878
:102A30001B8D013B9AB2FB681A85FB685B8D9BB2CC
:102A4000013B9AB2FB685A854EE07A6A396BF868A6
:102A500000F062FB0346002B01D0012358E0FB6825
:102A60001B681A69FB685B6AD2B21A70FB685B6A02
:102A70005A1CFB685A62FB681B8D013B9AB2FB68CB
:102A80001A85FB685B8D9BB2013B9AB2FB685A8545
:102A9000FB681B685B6903F00403042B24D1FB680B
:102AA0001B8D032B07D1FB681B681A68FB681B682A
:102AB00022F480621A60FB681B681A69FB685B6A13
:102AC000D2B21A70FB685B6A5A1CFB685A62FB68D8
:102AD0001B8D013B9AB2FB681A85FB685B8D9BB22C
:102AE000013B9AB2FB685A85FB681B8D002B7FF473
:102AF00088AEFB68202283F83D20FB68002283F823
:102B00003E20FB68002283F83C20002300E00223E3
:102B100018462837BD4680BD040001000000002093
:102B200089B5F81480B588B002AFF8607A603B6070
:102B30000B467B81FB68DB6A7B617B69082B06D0D7
:102B40007B69012B03D07B6913F5803F08D1FB68BB
:102B50001B681A68FB681B6842F480721A600BE0FD
:102B6000FB681B6B122B07D1FB681B681A68FB689C
:102B70001B6842F480721A603B6800937B680022F5
:102B80004FF00111F86800F01DF90346002B0DD03D
:102B9000FB681B681B6803F48073B3F5807F03D167
:102BA000FB684FF400721A64032335E0FB681B696D
:102BB000B3F5804F08D17B89DBB21A46FB681B68EE
:102BC00002F0FE021A611BE07B89DB11DBB203F02D
:102BD0000603DBB263F00F03DAB2FB681B681A610D
:102BE0003B687A680E49F86800F066F90346002BE6
:102BF00001D0012310E07B89DAB2FB681B681A61FF
:102C00003B687A680749F86800F056F90346002BDC
:102C100001D0012300E0002318461837BD4680BDCF
:102C2000080001000200010080B588B002AFF86022
:102C30007A603B600B467B81FB68DB6A7B61FB68EB
:102C40001B681A68FB681B6842F480621A607B6923
:102C5000082B06D07B69012B03D07B6913F5803FDD
:102C600008D1FB681B681A68FB681B6842F4807215
:102C70001A600BE0FB681B6B112B07D1FB681B680C
:102C80001A68FB681B6842F480721A603B68009304
:102C90007B6800224FF00111F86800F093F80346BA
:102CA000002B0DD0FB681B681B6803F48073B3F521
:102CB000807F03D1FB684FF400721A64032379E02C
:102CC000FB681B69B3F5804F08D17B89DBB243F009
:102CD0000103DAB2FB681B681A615FE07B89DB11D4
:102CE000DBB203F00603DBB263F00F03DAB2FB687A
:102CF0001B681A613B687A683049F86800F0DCF8B4
:102D00000346002B01D0012354E07B89DAB2FB6833
:102D10001B681A613B687A682949F86800F0CCF8AA
:102D20000346002B01D0012344E000233B61FB68F4
:102D30001B685B693B61FB681B689B693B613B6986
:102D4000FB681B681A68FB681B6842F480721A6093
:102D50003B6800937B6800224FF00111F86800F097
:102D600031F80346002B0DD0FB681B681B6803F489
:102D70008073B3F5807F03D1FB684FF400721A644F
:102D8000032317E07B89DB11DBB203F00603DBB220
:102D900063F00E03DAB2FB681B681A613B687A685D
:102DA0000749F86800F088F80346002B01D001239A
:102DB00000E0002318461837BD4680BD080001001A
:102DC0000200010080B584B000AFF860B9603B60DC
:102DD0001346FB7148E03B68B3F1FF3F44D0FEF778
:102DE000FDFB0246BB69D31A3A689A4202D33B689C
:102DF000002B39D1BB681B0CDBB2012B0DD1FB685A
:102E00001B685B69DA43BB6813409BB2002B0CBFA5
:102E100001230023DBB21A460CE0FB681B689B69A8
:102E2000DA43BB6813409BB2002B0CBF0123002385
:102E3000DBB21A46FB799A4216D1FB6800221A636C
:102E4000FB68202283F83D20FB68002283F83E20A7
:102E5000FB681B6C43F02002FB681A64FB680022CD
:102E600083F83C20012323E0BB681B0CDBB2012B61
:102E70000DD1FB681B685B69DA43BB6813409BB2EA
:102E8000002B0CBF01230023DBB21A460CE0FB68C9
:102E90001B689B69DA43BB6813409BB2002B0CBFD5
:102EA00001230023DBB21A46FB799A4293D0002318
:102EB00018461037BD4680BD80B584B000AFF860BD
:102EC000B9607A603B6071E0FB681B685B6903F482
:102ED0008063B3F5806F23D1FB681B681A68FB68B9
:102EE0001B6842F400721A60FB681B686FF4806212
:102EF0005A61FB6800221A63FB68202283F83D2098
:102F0000FB68002283F83E20FB681B6C43F0040240
:102F1000FB681A64FB68002283F83C20012367E009
:102F20007B68B3F1FF3F41D0FEF758FB02463B6898
:102F3000D31A7A689A4202D37B68002B36D1BB68D9
:102F40001B0CDBB2012B0CD1FB681B685B69DA43FD
:102F5000BB6813409BB2002B14BF01230023DBB2DC
:102F60000BE0FB681B689B69DA43BB6813409BB2AC
:102F7000002B14BF01230023DBB2002B16D0FB680B
:102F800000221A63FB68202283F83D20FB680022A0
:102F900083F83E20FB681B6C43F02002FB681A6438
:102FA000FB68002283F83C20012321E0BB681B0C56
:102FB000DBB2012B0CD1FB681B685B69DA43BB6891
:102FC00013409BB2002B14BF01230023DBB20BE0A4
:102FD000FB681B689B69DA43BB6813409BB2002BFC
:102FE00014BF01230023DBB2002B7FF46DAF00235D
:102FF00018461037BD4680BD80B584B000AFF8607C
:10300000B9607A6034E0F86800F0E3F80346002B1A
:1030100001D0012334E0BB68B3F1FF3F28D0FEF7B5
:10302000DDFA02467B68D31ABA689A4202D3BB68BB
:10303000002B1DD1FB681B685B6903F08003802BAC
:1030400016D0FB6800221A63FB68202283F83D201B
:10305000FB68002283F83E20FB681B6C43F02002D3
:10306000FB681A64FB68002283F83C20012307E018
:10307000FB681B685B6903F08003802BC3D10023CE
:1030800018461037BD4680BD80B584B000AFF860EB
:10309000B9607A6034E0F86800F09BF80346002BD2
:1030A00001D0012334E0BB68B3F1FF3F28D0FEF725
:1030B00095FA02467B68D31ABA689A4202D3BB6873
:1030C000002B1DD1FB681B685B6903F00403042B14
:1030D00016D0FB6800221A63FB68202283F83D208B
:1030E000FB68002283F83E20FB681B6C43F0200243
:1030F000FB681A64FB68002283F83C20012307E088
:10310000FB681B685B6903F00403042BC3D1002335
:1031100018461037BD4680BD80B584B000AFF8605A
:10312000B9607A6049E0FB681B685B6903F01003D3
:10313000102B19D1FB681B686FF010025A61FB68F5
:1031400000221A63FB68202283F83D20FB680022DE
:1031500083F83E20FB681A6CFB681A64FB68002247
:1031600083F83C20012330E0FEF738FA02467B6802
:10317000D31ABA689A4202D3BB68002B1DD1FB68F0
:103180001B685B6903F04003402B16D0FB680022EC
:103190001A63FB68202283F83D20FB68002283F835
:1031A0003E20FB681B6C43F02002FB681A64FB683E
:1031B000002283F83C20012307E0FB681B685B6961
:1031C00003F04003402BAED1002318461037BD4614
:1031D00080BD80B483B000AF78607B681B685B699A
:1031E00003F48063B3F5806F1BD17B681B686FF4B9
:1031F00080625A617B6800221A637B68202283F810
:103200003D207B68002283F83E207B681B6C43F0E6
:1032100004027B681A647B68002283F83C20012347
:1032200000E0002318460C37BD4680BC7047000004
:1032300080B586B000AF78607B68002B01D1012398
:1032400072E27B681B6803F00103002B00F08780AB
:10325000924B5B6803F00C03042B0CD08F4B5B6824
:1032600003F00C03082B12D18C4B5B6803F4803302
:10327000B3F5803F0BD1894B1B6803F40033002B5F
:103280006CD07B685B68002B68D101234CE27B68C3
:103290005B68B3F5803F06D1804B1B687F4A43F4DF
:1032A000803313602EE07B685B68002B0CD17B4B76
:1032B0001B687A4A23F480331360784B1B68774A83
:1032C00023F4802313601DE07B685B68B3F5A02FB7
:1032D0000CD1724B1B68714A43F4802313606F4B0F
:1032E0001B686E4A43F4803313600BE06B4B1B6822
:1032F0006A4A23F480331360684B1B68674A23F4DF
:10330000802313607B685B68002B13D0FEF766F99F
:10331000386108E0FEF762F902463B69D31A642B74
:1033200001D9032300E25D4B1B6803F40033002B3B
:10333000F0D014E0FEF752F9386108E0FEF74EF9DC
:1033400002463B69D31A642B01D90323ECE1534BAA
:103350001B6803F40033002BF0D100E000BF7B6852
:103360001B6803F00203002B63D04C4B5B6803F037
:103370000C03002B0BD0494B5B6803F00C03082BAC
:103380001CD1464B5B6803F48033002B16D1434BB2
:103390001B6803F00203002B05D07B681B69012B1F
:1033A00001D00123C0E13D4B1B6823F0F8027B688C
:1033B0005B69DB00394913430B603AE07B681B69AA
:1033C000002B20D0364B01221A60FEF707F9386136
:1033D00008E0FEF703F902463B69D31A022B01D934
:1033E0000323A1E12D4B1B6803F00203002BF0D057
:1033F0002A4B1B6823F0F8027B685B69DB002749D6
:1034000013430B6015E0264B00221A60FEF7E6F826
:10341000386108E0FEF7E2F802463B69D31A022B56
:1034200001D9032380E11D4B1B6803F00203002B2D
:10343000F0D17B681B6803F00803002B3AD07B684F
:103440009B69002B19D0174B01221A60FEF7C6F8B2
:10345000386108E0FEF7C2F802463B69D31A022B36
:1034600001D9032360E10D4B5B6A03F00203002BDB
:10347000F0D0012000F0FEFA1CE00A4B00221A6096
:10348000FEF7ACF838610FE0FEF7A8F802463B699A
:10349000D31A022B08D9032346E100BF00100240D3
:1034A0000000424280044242924B5B6A03F00203F6
:1034B000002BE9D17B681B6803F00403002B00F0AC
:1034C000A6800023FB758B4BDB6903F08053002B38
:1034D0000DD1884BDB69874A43F08053D361854B1C
:1034E000DB6903F08053BB60BB680123FB75824B33
:1034F0001B6803F48073002B18D17F4B1B687E4A36
:1035000043F480731360FEF769F8386108E0FEF752
:1035100065F802463B69D31A642B01D9032303E102
:10352000754B1B6803F48073002BF0D07B68DB685D
:10353000012B06D16F4B1B6A6E4A43F001031362E5
:103540002DE07B68DB68002B0CD16A4B1B6A694A53
:1035500023F001031362674B1B6A664A23F00403DE
:1035600013621CE07B68DB68052B0CD1614B1B6A86
:10357000604A43F0040313625E4B1B6A5D4A43F0EA
:10358000010313620BE05B4B1B6A5A4A23F00103F1
:103590001362584B1B6A574A23F0040313627B687B
:1035A000DB68002B15D0FEF719F838610AE0FEF74A
:1035B00015F802463B69D31A41F28832934201D989
:1035C0000323B1E04B4B1B6A03F00203002BEED048
:1035D00014E0FEF703F838610AE0FDF7FFFF02464A
:1035E0003B69D31A41F28832934201D903239BE00D
:1035F000404B1B6A03F00203002BEED1FB7D012B35
:1036000005D13C4BDB693B4A23F08053D3617B6897
:10361000DB69002B00F08780364B5B6803F00C03FE
:10362000082B61D07B68DB69022B46D1334B00222B
:103630001A60FDF7D3FF386108E0FDF7CFFF0246BF
:103640003B69D31A022B01D903236DE0294B1B6878
:1036500003F00073002BF0D17B681B6AB3F5803F49
:1036600008D1244B5B6823F400327B689B682149B6
:1036700013434B601F4B5B6823F474127B68196A19
:103680007B685B6A0B431B4913434B601B4B012256
:103690001A60FDF7A3FF386108E0FDF79FFF0246BF
:1036A0003B69D31A022B01D903233DE0114B1B6860
:1036B00003F00073002BF0D035E0104B00221A60AD
:1036C000FDF78CFF386108E0FDF788FF02463B6993
:1036D000D31A022B01D9032326E0064B1B6803F003
:1036E0000073002BF0D11EE07B68DB69012B07D152
:1036F000012319E0001002400070004060004242C7
:103700000B4B5B68FB60FB6803F480327B681B6AD1
:103710009A4206D1FB6803F470127B685B6A9A4296
:1037200001D0012300E0002318461837BD4680BDB4
:103730000010024080B584B000AF786039607B68CB
:10374000002B01D10123D0E06A4B1B6803F0070373
:103750003A689A4210D9674B1B6823F00702654903
:103760003B6813430B60634B1B6803F007033A6825
:103770009A4201D00123B8E07B681B6803F0020382
:10378000002B20D07B681B6803F00403002B05D0BE
:10379000594B5B68584A43F4E06353607B681B688D
:1037A00003F00803002B05D0534B5B68524A43F4E7
:1037B00060535360504B5B6823F0F0027B689B685A
:1037C0004D4913434B607B681B6803F00103002BDA
:1037D00040D07B685B68012B07D1474B1B6803F423
:1037E0000033002B15D101237FE07B685B68022B3F
:1037F00007D1414B1B6803F00073002B09D1012353
:1038000073E03D4B1B6803F00203002B01D1012341
:103810006BE0394B5B6823F003027B685B683649D9
:1038200013434B60FDF7DAFEF8600AE0FDF7D6FEC1
:103830000246FB68D31A41F28832934201D903232E
:1038400053E02D4B5B6803F00C027B685B689B00C8
:103850009A42EBD1274B1B6803F007033A689A4260
:1038600010D2244B1B6823F0070222493B68134304
:103870000B60204B1B6803F007033A689A4201D0A3
:10388000012332E07B681B6803F00403002B08D09F
:10389000194B5B6823F4E0627B68DB6816491343CD
:1038A0004B607B681B6803F00803002B09D0124BA8
:1038B0005B6823F460527B681B69DB000E4913438D
:1038C0004B6000F021F802460B4B5B681B0903F0CC
:1038D0000F030A49CB5C22FA03F3094A1360094B30
:1038E0001B681846FDF752FD002318461037BD46E9
:1038F00080BD00BF00200240001002404876000852
:10390000000000200400002080B487B000AF002336
:10391000FB600023BB6000237B6100237B600023EE
:103920003B611E4B5B68FB60FB6803F00C03042BE0
:1039300002D0082B03D027E0194B3B6127E0FB683E
:103940009B0C03F00F03174AD35C7B60FB6803F406
:103950008033002B10D0114B5B685B0C03F001032C
:10396000114AD35CBB607B680D4A03FB02F2BB6863
:10397000B2FBF3F37B6104E07B680C4A02FB03F3C8
:103980007B617B693B6102E0054B3B6100BF3B69AA
:1039900018461C37BD4680BC704700BF001002406F
:1039A00000127A00607600087076000800093D0079
:1039B00080B400AF024B1B681846BD4680BC704700
:1039C0000000002080B500AFFFF7F2FF0246054B74
:1039D0005B681B0A03F007030349CB5C22FA03F37D
:1039E000184680BD001002405876000880B500AF30
:1039F000FFF7DEFF0246054B5B68DB0A03F00703B7
:103A00000349CB5C22FA03F3184680BD0010024044
:103A10005876000880B483B000AF786039607B6866
:103A20000F221A60114B5B6803F003027B685A6037
:103A30000E4B5B6803F0F0027B689A600B4B5B688F
:103A400003F4E0627B68DA60084B5B68DB0803F430
:103A5000E0627B681A61064B1B6803F007023B6853
:103A60001A6000BF0C37BD4680BC70470010024092
:103A70000020024080B485B000AF78600A4B1B681C
:103A80000A4AA2FB03235B0A7A6802FB03F3FB608A
:103A900000BFFB685A1EFA60002BF9D100BF00BFBF
:103AA0001437BD4680BC704700000020D34D621023
:103AB00080B586B000AF786000233B610023FB60D7
:103AC0007B681B6803F00103002B7DD00023FB758E
:103AD0004F4BDB6903F08053002B0DD14C4BDB695E
:103AE0004B4A43F08053D361494BDB6903F0805369
:103AF000BB60BB680123FB75464B1B6803F48073F6
:103B0000002B18D1434B1B68424A43F48073136067
:103B1000FDF764FD386108E0FDF760FD02463B6992
:103B2000D31A642B01D903236DE03A4B1B6803F4CD
:103B30008073002BF0D0364B1B6A03F44073FB609C
:103B4000FB68002B2ED07B685B6803F44073FA6837
:103B50009A4227D02E4B1B6A23F44073FB602E4BF6
:103B600001221A602C4B00221A60294AFB6813625A
:103B7000FB6803F00103002B14D0FDF72FFD386123
:103B80000AE0FDF72BFD02463B69D31A41F2883269
:103B9000934201D9032336E01D4B1B6A03F0020355
:103BA000002BEED01A4B1B6A23F440727B685B68D3
:103BB000174913430B62FB7D012B05D1144BDB69C5
:103BC000134A23F08053D3617B681B6803F0020320
:103BD000002B08D00E4B5B6823F440427B689B6847
:103BE0000B4913434B607B681B6803F01003002BE9
:103BF00008D0074B5B6823F480027B68DB680449CC
:103C000013434B60002318461837BD4680BD00BFE4
:103C100000100240007000404004424280B582B073
:103C200000AF78607B68002B01D1012341E07B6805
:103C300093F83D30DBB2002B06D17B68002283F87D
:103C40003C20786800F039F87B68022283F83D2038
:103C50007B681A687B6804331946104600F0B4F993
:103C60007B68012283F846207B68012283F83E208E
:103C70007B68012283F83F207B68012283F8402083
:103C80007B68012283F841207B68012283F842206F
:103C90007B68012283F843207B68012283F844205B
:103CA0007B68012283F845207B68012283F83D2050
:103CB000002318460837BD4680BD80B483B000AFEE
:103CC000786000BF0C37BD4680BC704780B485B0BB
:103CD00000AF78607B6893F83D30DBB2012B01D0F8
:103CE00001233AE07B68022283F83D207B681B6851
:103CF000DA687B681B6842F00102DA607B681B6847
:103D0000184A93420ED07B681B68B3F1804F09D0EC
:103D10007B681B68144A934204D07B681B68134A73
:103D2000934211D17B681B689B6803F00703FB601B
:103D3000FB68062B10D07B681B681A687B681B68C1
:103D400042F001021A6007E07B681B681A687B6812
:103D50001B6842F001021A60002318461437BD4662
:103D600080BC7047002C0140000400400008004067
:103D700080B582B000AF78607B681B681B6903F078
:103D80000203022B22D17B681B68DB6803F002036D
:103D9000022B1BD17B681B686FF002021A617B68E3
:103DA00001221A777B681B689B6903F00303002BD1
:103DB00003D0786800F0EDF805E0786800F0E0F8EE
:103DC000786800F0EFF87B6800221A777B681B6840
:103DD0001B6903F00403042B22D17B681B68DB689A
:103DE00003F00403042B1BD17B681B686FF00402F3
:103DF0001A617B6802221A777B681B689B6903F44F
:103E00004073002B03D0786800F0C3F805E07868B1
:103E100000F0B6F8786800F0C5F87B6800221A77E1
:103E20007B681B681B6903F00803082B22D17B68A1
:103E30001B68DB6803F00803082B1BD17B681B6839
:103E40006FF008021A617B6804221A777B681B688E
:103E5000DB6903F00303002B03D0786800F099F8C6
:103E600005E0786800F08CF8786800F09BF87B68D3
:103E700000221A777B681B681B6903F01003102B64
:103E800022D17B681B68DB6803F01003102B1BD169
:103E90007B681B686FF010021A617B6808221A7732
:103EA0007B681B68DB6903F44073002B03D07868E0
:103EB00000F06FF805E0786800F062F8786800F0CC
:103EC00071F87B6800221A777B681B681B6903F016
:103ED0000103012B0ED17B681B68DB6803F0010333
:103EE000012B07D17B681B686FF001021A617868AB
:103EF000FDF754F97B681B681B6903F08003802B76
:103F00000ED17B681B68DB6803F08003802B07D130
:103F10007B681B686FF080021A61786800F0BFF858
:103F20007B681B681B6903F04003402B0ED17B6844
:103F30001B68DB6803F04003402B07D17B681B68DC
:103F40006FF040021A61786800F035F87B681B68F2
:103F50001B6903F02003202B0ED17B681B68DB68F4
:103F600003F02003202B07D17B681B686FF0200231
:103F70001A61786800F08AF800BF0837BD4680BD36
:103F800080B483B000AF786000BF0C37BD4680BC02
:103F9000704780B483B000AF786000BF0C37BD4677
:103FA00080BC704780B483B000AF786000BF0C372E
:103FB000BD4680BC704780B483B000AF786000BF5E
:103FC0000C37BD4680BC704780B485B000AF7860C8
:103FD00039607B681B68FB607B68294A93420BD081
:103FE0007B68B3F1804F07D07B68264A934203D0A9
:103FF0007B68254A934208D1FB6823F07003FB607D
:104000003B685B68FA681343FB607B681C4A934219
:104010000BD07B68B3F1804F07D07B68194A93427D
:1040200003D07B68184A934208D1FB6823F440739D
:10403000FB603B68DB68FA681343FB60FB6823F0B6
:1040400080023B685B691343FB607B68FA681A6017
:104050003B689A687B68DA623B681A687B689A6298
:104060007B68074A934203D13B681A697B681A63ED
:104070007B6801225A6100BF1437BD4680BC70477F
:10408000002C0140000400400008004080B483B0D0
:1040900000AF786000BF0C37BD4680BC704780B46D
:1040A00083B000AF786000BF0C37BD4680BC70475E
:1040B00080B485B000AFEFF30583BB60BB68002B15
:1040C0000FD1EFF310837B607B68002B09D1104B7D
:1040D0001B68022B09D1EFF311833B603B68002B77
:1040E00003D06FF00503FB600CE0094B1B68002B4D
:1040F00005D1074B01221A600023FB6002E04FF05C
:10410000FF33FB60FB6818461437BD4680BC704720
:10411000D401002080B584B000AFEFF30583BB600D
:10412000BB68002B0FD1EFF310837B607B68002B03
:1041300009D1114B1B68022B09D1EFF311833B60AE
:104140003B68002B03D06FF00503FB600EE00A4BC9
:104150001B68012B07D1084B02221A6001F0A8F856
:104160000023FB6002E04FF0FF33FB60FB68184662
:104170001037BD4680BD00BFD401002080B592B08D
:1041800004AFF860B9607A6000237B61EFF30583C8
:104190007B627B6A002B40F09480EFF310833B62DC
:1041A0003B6A002B40F08D80484B1B68022B06D1E8
:1041B000EFF31183FB61FB69002B40F08280FB6809
:1041C000002B7ED080233B631823FB620023FB7609
:1041D00007F11B037B634FF0FF33BB627B68002B4F
:1041E00045D07B681B68002B02D07B681B687B6313
:1041F0007B689B69002B02D07B689B69FB62FB6A32
:10420000002B08D0FB6A382B05D87B685B6803F06D
:104210000103002B01D0002354E07B685B69002B75
:1042200003D07B685B699B083B637B689B68002BC2
:104230000ED07B68DB68A72B0AD97B681B69002B33
:1042400006D07B685B69002B02D00123BB6210E0C3
:104250007B689B68002B0CD17B68DB68002B08D146
:104260007B681B69002B04D10023BB6201E00023A3
:10427000BB62BB6A012B10D17B681B697A689268AC
:1042800002920193FB6A0093BB683A6B796BF86802
:1042900000F024FE03467B6113E0BB6A002B10D1C3
:1042A0003B6B9AB207F114030193FB6A0093BB685E
:1042B000796BF86800F071FE0346012B01D00023F2
:1042C0007B617B6918463837BD4680BDD40100202C
:1042D00080B586B000AF7860EFF305833B613B6942
:1042E000002B0FD1EFF31083FB60FB68002B09D18B
:1042F0000D4B1B68022B09D1EFF31183BB60BB6828
:10430000002B03D06FF005037B6107E000237B6186
:104310007B68002B02D0786800F094FF7B69184618
:104320001837BD4680BD00BFD401002080B485B0E1
:1043300000AFF860B9607A60FB68064A1A60BB6833
:10434000054A1A607B6880221A6000BF1437BD4698
:1043500080BC7047D80100208002002080B485B066
:1043600000AFF860B9607A60FB68074A1A60BB6802
:10437000064A1A607B684FF480721A6000BF1437D7
:10438000BD4680BC704700BF800400202805002087
:1043900080B483B000AF78607B6803F108027B686B
:1043A0005A607B684FF0FF329A607B6803F1080225
:1043B0007B68DA607B6803F108027B681A617B68BE
:1043C00000221A6000BF0C37BD4680BC704780B425
:1043D00083B000AF78607B6800221A6100BF0C37A1
:1043E000BD4680BC704780B485B000AF786039604E
:1043F0007B685B68FB603B68FA685A60FB689A6898
:104400003B689A60FB689B683A685A60FB683A6848
:104410009A603B687A681A617B681B685A1C7B68E3
:104420001A6000BF1437BD4680BC704780B485B0A9
:1044300000AF786039603B681B68BB60BB68B3F154
:10444000FF3F03D17B681B69FB600CE07B6808338E
:10445000FB6002E0FB685B68FB60FB685B681B68F5
:10446000BA689A42F6D2FB685A683B685A603B6861
:104470005B683A689A603B68FA689A60FB683A68D9
:104480005A603B687A681A617B681B685A1C7B68B3
:104490001A6000BF1437BD4680BC704780B485B039
:1044A00000AF78607B681B69FB607B685B687A683B
:1044B00092689A607B689B687A6852685A60FB6869
:1044C0005B687A689A4203D17B689A68FB685A6095
:1044D0007B6800221A61FB681B685A1EFB681A6021
:1044E000FB681B6818461437BD4680BC7047000047
:1044F00080B584B000AF786039607B68FB60FB6892
:10450000002B0BD14FF0500383F31188BFF36F8F53
:10451000BFF34F8FBB6000BF00BFFDE702F026F87E
:10452000FB681A68FB68DB6BF968096C01FB03F335
:104530001A44FB685A60FB6800229A63FB681A6899
:10454000FB689A60FB681A68FB68DB6B013BF968E3
:10455000096C01FB03F31A44FB68DA60FB68FF2275
:1045600083F84420FB68FF2283F845203B68002B3A
:1045700014D1FB681B69002B1AD0FB681033184656
:1045800001F036F90346002B12D00D4B4FF080524C
:104590001A60BFF34F8FBFF36F8F09E0FB681033D2
:1045A0001846FFF7F5FEFB6824331846FFF7F0FEC8
:1045B00002F00CF8012318461037BD4680BD00BF3D
:1045C00004ED00E080B58EB002AFF860B9607A60AB
:1045D0003B60FB68002B0BD14FF0500383F3118835
:1045E000BFF36F8FBFF34F8FBB6200BF00BFFDE70C
:1045F0003B68002B0BD14FF0500383F31188BFF3BE
:104600006F8FBFF34F8F7B6200BF00BFFDE77B68FA
:10461000002B02D0BB68002B01D0012300E0002357
:10462000002B0BD14FF0500383F31188BFF36F8F32
:10463000BFF34F8F3B6200BF00BFFDE77B68002BDD
:1046400002D1BB68002B01D1012300E00023002B25
:104650000BD14FF0500383F31188BFF36F8FBFF37B
:104660004F8FFB6100BF00BFFDE750237B617B697B
:10467000502B0BD04FF0500383F31188BFF36F8F93
:10468000BFF34F8FBB6100BF00BFFDE73B68FB621C
:10469000FB6A002B0DD0FB6A012283F8462097F8B5
:1046A0003820FB6A009313467A68B968F86800F00E
:1046B00005F8FB6A18463037BD4680BD80B584B02A
:1046C00000AFF860B9607A60FB70BB68002B03D163
:1046D000BB69BA691A6002E0BB697A681A60BB6993
:1046E000FA68DA63BB69BA681A640121B869FFF72E
:1046F000FFFEBB69FA7883F84C2000BF1037BD4637
:1047000080BD000080B58EB000AFF860B9607A60FF
:104710003B6000237B63FB683B633B6B002B0BD14F
:104720004FF0500383F31188BFF36F8FBFF34F8FA8
:10473000BB6200BF00BFFDE7BB68002B03D13B6B32
:104740001B6C002B01D1012300E00023002B0BD1B7
:104750004FF0500383F31188BFF36F8FBFF34F8F78
:104760007B6200BF00BFFDE73B68022B03D13B6BC0
:10477000DB6B012B01D1012300E00023002B0BD1C7
:104780004FF0500383F31188BFF36F8FBFF34F8F48
:104790003B6200BF00BFFDE701F0F4F90346002BC8
:1047A00002D17B68002B01D1012300E00023002B04
:1047B0000BD14FF0500383F31188BFF36F8FBFF31A
:1047C0004F8FFB6100BF00BFFDE701F0CFFE3B6BE9
:1047D0009A6B3B6BDB6B9A4202D33B68022B29D16D
:1047E0003A68B968386B00F00DFAF8623B6B5B6AA7
:1047F000002B10D03B6B2433184600F0F9FF034622
:10480000002B13D03F4B4FF080521A60BFF34F8FF5
:10481000BFF36F8F0AE0FB6A002B07D0394B4FF0D4
:1048200080521A60BFF34F8FBFF36F8F01F0CEFE3F
:10483000012363E07B68002B03D101F0C7FE002356
:104840005CE07B6B002B06D107F11403184601F0E6
:1048500033F801237B6301F0B9FE00F099FD01F00C
:1048600085FE3B6B93F844305BB2B3F1FF3F03D15D
:104870003B6B002283F844203B6B93F845305BB2DE
:10488000B3F1FF3F03D13B6B002283F8452001F0D9
:104890009DFE3A1D07F114031146184601F022F857
:1048A0000346002B24D1386B00F0A4FA0346002BFA
:1048B00018D03B6B10337A681146184600F046FF5B
:1048C000386B00F02FFA00F071FD0346002B7FF4E7
:1048D0007CAF0C4B4FF080521A60BFF34F8FBFF389
:1048E0006F8F72E7386B00F01DFA00F05FFD6CE728
:1048F000386B00F017FA00F059FD002318463837DE
:10490000BD4680BD04ED00E080B58EB000AFF8601C
:10491000B9607A603B60FB683B633B6B002B0BD15B
:104920004FF0500383F31188BFF36F8FBFF34F8FA6
:104930007B6200BF00BFFDE7BB68002B03D13B6B70
:104940001B6C002B01D1012300E00023002B0BD1B5
:104950004FF0500383F31188BFF36F8FBFF34F8F76
:104960003B6200BF00BFFDE73B68022B03D13B6BFE
:10497000DB6B012B01D1012300E00023002B0BD1C5
:104980004FF0500383F31188BFF36F8FBFF34F8F46
:10499000FB6100BF00BFFDE701F0AAFEEFF311824B
:1049A0004FF0500383F31188BFF36F8FBFF34F8F26
:1049B000BA617B61BB69FB623B6B9A6B3B6BDB6BE8
:1049C0009A4202D33B68022B2CD13B6B93F84530C3
:1049D00087F82B303A68B968386B00F013F997F90B
:1049E0002B30B3F1FF3F12D13B6B5B6A002B16D02B
:1049F0003B6B2433184600F0FBFE0346002B0ED021
:104A00007B68002B0BD07B6801221A6007E097F8C7
:104A10002B300133DBB25AB23B6B83F845200123C4
:104A20007B6301E000237B63FB6A3B613B6983F3AB
:104A3000118800BF7B6B18463837BD4680BD00002B
:104A400080B58CB000AFF860B9607A600023FB627B
:104A5000FB68BB62BB6A002B0BD14FF0500383F3A2
:104A60001188BFF36F8FBFF34F8F3B6200BF00BF52
:104A7000FDE7BB68002B03D1BB6A1B6C002B01D187
:104A8000012300E00023002B0BD14FF0500383F3F0
:104A90001188BFF36F8FBFF34F8FFB6100BF00BF63
:104AA000FDE701F06FF80346002B02D17B68002B75
:104AB00001D1012300E00023002B0BD14FF0500364
:104AC00083F31188BFF36F8FBFF34F8FBB6100BFBC
:104AD00000BFFDE701F04AFDBB6A9B6B7B627B6A0E
:104AE000002B1FD0B968B86A00F0F6F87B6A5A1E2E
:104AF000BB6A9A63BB6A1B69002B0FD0BB6A103379
:104B0000184600F075FE0346002B07D03C4B4FF0D3
:104B100080521A60BFF34F8FBFF36F8F01F056FDC5
:104B2000012369E07B68002B03D101F04FFD0023D6
:104B300062E0FB6A002B06D107F11003184600F073
:104B4000BBFE0123FB6201F041FD00F021FC01F0FE
:104B50000DFDBB6A93F844305BB2B3F1FF3F03D164
:104B6000BB6A002283F84420BB6A93F845305BB2ED
:104B7000B3F1FF3F03D1BB6A002283F8452001F067
:104B800025FD3A1D07F110031146184600F0AAFE54
:104B90000346002B23D1B86A00F016F90346002B18
:104BA00017D0BB6A24337A681146184600F0CEFD50
:104BB000B86A00F0B7F800F0F9FB0346002B89D182
:104BC0000F4B4FF080521A60BFF34F8FBFF36F8FC0
:104BD00080E7B86A00F0A6F800F0E8FB7AE7B86A68
:104BE00000F0A0F800F0E2FBB86A00F0EDF8034630
:104BF000002B3FF46FAF002318463037BD4680BD11
:104C000004ED00E080B586B000AFF860B9607A606E
:104C100000237B61FB689B6B3B61FB681B6C002B7B
:104C20000DD1FB681B68002B4DD1FB685B681846F3
:104C300000F0C6FF7861FB6800225A6043E07B68A1
:104C4000002B19D1FB689868FB681B6C1A46B96881
:104C500002F016F8FB689A68FB681B6C1A44FB6844
:104C60009A60FB689A68FB685B689A422BD3FB6882
:104C70001A68FB689A6026E0FB68D868FB681B6CC2
:104C80001A46B96801F0FCFFFB68DA68FB681B6C28
:104C90005B421A44FB68DA60FB68DA68FB681B68F1
:104CA0009A4207D2FB685A68FB681B6C5B421A4445
:104CB000FB68DA607B68022B05D13B69002B02D0D0
:104CC0003B69013B3B613B695A1CFB689A637B690A
:104CD00018461837BD4680BD80B582B000AF7860F9
:104CE00039607B681B6C002B18D07B68DA687B68A6
:104CF0001B6C1A447B68DA607B68DA687B685B68E7
:104D00009A4203D37B681A687B68DA607B68D9684B
:104D10007B681B6C1A46386801F0B2FF00BF083789
:104D2000BD4680BD80B584B000AF786001F01EFC48
:104D30007B6893F84530FB7311E07B685B6A002B5E
:104D400012D07B682433184600F052FD0346002B36
:104D500001D000F02BFEFB7B013BDBB2FB7397F92C
:104D60000F30002BE9DC00E000BF7B68FF2283F8F6
:104D7000452001F02BFC01F0F9FB7B6893F84430EF
:104D8000BB7311E07B681B69002B12D07B6810336A
:104D9000184600F02DFD0346002B01D000F006FE62
:104DA000BB7B013BDBB2BB7397F90E30002BE9DC18
:104DB00000E000BF7B68FF2283F8442001F006FC7E
:104DC00000BF1037BD4680BD80B584B000AF7860AD
:104DD00001F0CCFB7B689B6B002B02D10123FB60B5
:104DE00001E00023FB6001F0F1FBFB68184610377F
:104DF000BD4680BD80B584B000AF786001F0B6FBE1
:104E00007B689A6B7B68DB6B9A4202D10123FB6063
:104E100001E00023FB6001F0D9FBFB681846103766
:104E2000BD4680BD80B485B000AF78603960002396
:104E3000FB6014E00E4AFB6852F83330002B0BD1B4
:104E40000B49FB683A6841F83320094AFB68DB00EC
:104E500013447A685A6006E0FB680133FB60FB6824
:104E6000072BE7D900BF00BF1437BD4680BC704791
:104E70002809002080B586B000AFF860B9607A607C
:104E8000FB687B6101F072FB7B6993F844305BB295
:104E9000B3F1FF3F03D17B69002283F844207B6993
:104EA00093F845305BB2B3F1FF3F03D17B69002239
:104EB00083F8452001F08AFB7B699B6B002B06D1B0
:104EC0007B6924337A68B968184600F065FC786914
:104ED000FFF728FF00BF1837BD4680BD80B58EB0F4
:104EE00004AFF860B9607A603B607B6B002B0BD13C
:104EF0004FF0500383F31188BFF36F8FBFF34F8FD1
:104F00003B6200BF00BFFDE7BB6B002B0BD14FF036
:104F1000500383F31188BFF36F8FBFF34F8FFB6193
:104F200000BF00BFFDE7A8233B613B69A82B0BD066
:104F30004FF0500383F31188BFF36F8FBFF34F8F90
:104F4000BB6100BF00BFFDE7BB6B002B1ED07B6BBE
:104F5000002B1BD0BB6B7B627B6A7A6B1A637B6A0C
:104F6000022283F8A520002303937B6A029307F1B2
:104F7000140301933B6B00933B687A68B968F86847
:104F800000F050F8786A00F0EDF801E000237B6152
:104F90007B6918462837BD4680BD80B58CB004AF0C
:104FA000F860B9603B601346FB80FB889B001846A5
:104FB00001F0DEFB78617B69002B0ED0A82001F0A8
:104FC000D7FBF861FB69002B03D0FB697A691A6390
:104FD00005E0786901F094FC01E00023FB61FB69C6
:104FE000002B17D0FB69002283F8A520FA88002344
:104FF0000393FB690293FB6A0193BB6A00933B68CE
:10500000B968F86800F00EF8F86900F0ABF8012311
:10501000BB6102E04FF0FF33BB61BB69184620372C
:10502000BD4680BD80B588B000AFF860B9607A60D9
:105030003B603B6B186B7B689B001A46A52101F017
:1050400095FD3B6B1A6B7B6803F18043013B9B0032
:105050001344BB61BB6923F00703BB61BB6903F069
:105060000703002B0BD04FF0500383F31188BFF3DD
:105070006F8FBFF34F8F7B6100BF00BFFDE7002341
:10508000FB6112E0BA68FB69134419783A6BFB695B
:10509000134434330A461A70BA68FB6913441B7808
:1050A000002B06D0FB690133FB61FB690F2BE9D9AB
:1050B00000E000BF3B6B002283F84320BB6A372B24
:1050C00001D93723BB623B6BBA6ADA623B6BBA6ABF
:1050D000DA643B6B00221A653B6B04331846FFF71A
:1050E00076F93B6B18331846FFF771F93B6B3A6B57
:1050F0001A61BB6AC3F138023B6B9A613B6B3A6B36
:105100005A623B6B0022C3F8A0203B6B002283F85D
:10511000A4203B6B54334C220021184601F026FD9D
:105120003B6B0D4A9A653B6B0C4ADA653B6B0C4A4C
:105130001A663A68F968B86901F026F902463B6BCD
:105140001A60FB6A002B02D0FB6A3A6B1A6000BF40
:105150002037BD4680BD00BFB41B00201C1C0020B2
:10516000841C002080B582B000AF786001F0FEF9A9
:105170002D4B1B6801332C4A13602C4B1B68002BF2
:1051800009D12A4A7B681360274B1B68012B10D179
:1051900000F030FC0DE0264B1B68002B09D1234B9F
:1051A0001B68DA6A7B68DB6A9A4202D81F4A7B680E
:1051B0001360204B1B6801331E4A13601D4B1A6895
:1051C0007B685A647B68DA6A1B4B1B689A4203D976
:1051D0007B68DB6A184A13607B68DA6A13469B00B7
:1051E00013449B00154A1A447B6804331946104641
:1051F000FFF7F9F801F0EAF90D4B1B68002B0ED010
:105200000A4B1B68DA6A7B68DB6A9A4207D20C4B4E
:105210004FF080521A60BFF34F8FBFF36F8F00BF04
:105220000837BD4680BD00BF3C0E00206809002045
:10523000480E0020580E0020440E00206C0900206B
:1052400004ED00E080B584B000AF78600023FB601F
:105250007B68002B18D0144B1B68002B0BD04FF031
:10526000500383F31188BFF36F8FBFF34F8FBB6081
:1052700000BF00BFFDE700F08BF80021786800F068
:105280000FFD00F093F8F860FB68002B07D1074B87
:105290004FF080521A60BFF34F8FBFF36F8F00BF84
:1052A0001037BD4680BD00BF640E002004ED00E055
:1052B00080B58AB004AF0023BB6000237B603A4610
:1052C000391D07F108031846FFF730F839687B6885
:1052D000BA68029201930023009300230A462449EE
:1052E0002448FFF7FBFD0346234A1360224B1B684B
:1052F000002B02D001237B6101E000237B617B69ED
:10530000012B02D100F020FD78617B69012B1BD1BC
:105310004FF0500383F31188BFF36F8FBFF34F8FAC
:105320003B6100BF154B1B685433154A1360154B86
:105330004FF0FF321A60144B01221A60134B002207
:105340001A6001F0A1F80FE07B69B3F1FF3F0BD1C8
:105350004FF0500383F31188BFF36F8FBFF34F8F6C
:10536000FB6000BF00BFFDE700BF1837BD4680BD32
:10537000A0750008C5590008600E002068090020CB
:10538000100000205C0E0020480E0020400E00207F
:1053900080B400AF044B1B680133034A136000BFA5
:1053A000BD4680BC704700BF640E002080B584B04D
:1053B00000AF0023FB600023BB60424B1B68002B47
:1053C0000BD14FF0500383F31188BFF36F8FBFF3FE
:1053D0004F8F3B6000BF00BFFDE701F0C7F8394BBE
:1053E0001B68013B374A1360364B1B68002B62D1A8
:1053F000354B1B68002B5ED02FE0344BDB68DB683D
:10540000FB60FB6818331846FFF748F8FB68043365
:105410001846FFF743F8FB68DA6A2D4B1B689A427F
:1054200003D9FB68DB6A2A4A1360FB68DA6A134611
:105430009B0013449B00274A1A44FB680433194617
:105440001046FEF7D0FFFB68DA6A234B1B68DB6A65
:105450009A4202D3214B01221A601C4B1B68002B7D
:10546000CBD1FB68002B01D000F068FB1C4B1B6804
:105470007B607B68002B10D000F044F80346002BC3
:1054800002D0164B01221A607B68013B7B607B686F
:10549000002BF1D1124B00221A60104B1B68002B1D
:1054A00009D00123BB600F4B4FF080521A60BFF34D
:1054B0004F8FBFF36F8F01F089F8BB681846103724
:1054C000BD4680BD640E00203C0E0020FC0D002077
:1054D000440E00206C09002068090020500E0020B6
:1054E0004C0E002004ED00E080B483B000AF044B0C
:1054F0001B687B607B6818460C37BD4680BC7047D4
:10550000400E002080B586B000AF00237B61524B77
:105510001B68002B40F08F80504B1B6801333B61B0
:105520004E4A3B6913603B69002B21D14C4B1B68F1
:105530001B68002B0BD04FF0500383F31188BFF38F
:105540006F8FBFF34F8F3B6000BF00BFFDE7444B41
:105550001B68FB60434B1B68414A1360414AFB6870
:105560001360414B1B6801333F4A136000F0E6FAB9
:105570003E4B1B683A699A424ED3394B1B681B68F5
:10558000002B01D1012300E00023002B04D0374B76
:105590004FF0FF321A603FE0314B1B68DB68DB687D
:1055A000BB60BB685B687B603A697B689A4203D2E8
:1055B0002E4A7B6813602FE0BB6804331846FEF761
:1055C0006DFFBB689B6A002B04D0BB68183318467C
:1055D000FEF764FFBB68DA6A254B1B689A4203D961
:1055E000BB68DB6A224A1360BB68DA6A13469B0019
:1055F00013449B001F4A1A44BB68043319461046E3
:10560000FEF7F1FEBB68DA6A1B4B1B68DB6A9A4245
:10561000B3D301237B61B0E7174B1B68DA6A1549E6
:1056200013469B0013449B000B441B68012B07D9B6
:1056300001237B6104E0114B1B6801330F4A1360A7
:105640000F4B1B68002B01D001237B617B6918463F
:105650001837BD4680BD00BF640E0020400E0020FC
:10566000F40D0020F80D0020540E00205C0E0020E8
:10567000440E00206C090020680900204C0E002018
:10568000500E002080B485B000AF2A4B1B68002B61
:1056900003D0294B01221A6047E0274B00221A60F1
:1056A000264B1B68FB6011E0FB68002B0BD14FF011
:1056B000500383F31188BFF36F8FBFF34F8F7B606D
:1056C00000BF00BFFDE7FB68013BFB601C49FA68B7
:1056D00013469B0013449B000B441B68002BE3D034
:1056E000FA6813469B0013449B00154A1344BB60A1
:1056F000BB685B685A68BB685A60BB685A68BB681D
:1057000008339A4204D1BB685B685A68BB685A6028
:10571000BB685B68DB680B4A1360084AFB68136070
:10572000084B1B685433084A136000BF1437BD464A
:1057300080BC7047640E0020500E0020440E0020F4
:105740006C090020680900201000002080B584B09A
:1057500000AF786039607B68002B0BD14FF05003AD
:1057600083F31188BFF36F8FBFF34F8FFB6000BFD0
:1057700000BFFDE7074B1B68183319467868FEF732
:1057800055FE0121386800F08BFA00BF1037BD4686
:1057900080BD00BF6809002080B586B000AFF8600A
:1057A000B9607A60FB68002B0BD14FF0500383F394
:1057B0001188BFF36F8FBFF34F8F7B6100BF00BFB6
:1057C000FDE70A4B1B6818331946F868FEF70BFE15
:1057D0007B68002B02D04FF0FF33BB607968B8685C
:1057E00000F05EFA00BF1837BD4680BD6809002092
:1057F00080B586B000AF78607B68DB68DB683B61B2
:105800003B69002B0BD14FF0500383F31188BFF39A
:105810006F8FBFF34F8FFB6000BF00BFFDE73B6999
:1058200018331846FEF73AFE1D4B1B68002B1DD19E
:105830003B6904331846FEF731FE3B69DA6A194BBF
:105840001B689A4203D93B69DB6A164A13603B69BD
:10585000DA6A13469B0013449B00134A1A443B69BF
:10586000043319461046FEF7BEFD05E03B691833C8
:1058700019460E48FEF7B7FD3B69DA6A0C4B1B6808
:10588000DB6A9A4205D901237B610A4B01221A6027
:1058900001E000237B617B6918461837BD4680BD57
:1058A000640E0020440E00206C090020FC0D002036
:1058B00068090020500E002080B483B000AF7860EB
:1058C000064B1A687B681A60054B1A687B685A6039
:1058D00000BF0C37BD4680BC704700BF540E00208F
:1058E000400E002080B588B000AF786039607B68DA
:1058F000002B0BD14FF0500383F31188BFF36F8F50
:10590000BFF34F8F3B6100BF00BFFDE73B68002B3B
:105910000BD14FF0500383F31188BFF36F8FBFF3A8
:105920004F8FFB6000BF00BFFDE700F01FFE1D4B67
:105930001B68BB617B685B68BA69D31A7B613B6893
:105940001B68B3F1FF3F02D10023FB6123E07B68BA
:105950001A68154B1B689A4207D07B685B68BA6966
:105960009A4202D30123FB6115E03B681B687A6908
:105970009A420BD23B681A687B69D21A3B681A605C
:105980007868FFF799FF0023FB6104E03B68002281
:105990001A600123FB6100F019FEFB6918462037ED
:1059A000BD4680BD400E0020540E002080B400AFE4
:1059B000034B01221A6000BFBD4680BC704700BF88
:1059C000500E002080B582B000AF786000F052F831
:1059D000064B1B68012BF9D9054B4FF080521A601A
:1059E000BFF34F8FBFF36F8FF0E700BF6C0900204C
:1059F00004ED00E080B582B000AF00237B600CE0D6
:105A00007A6813469B0013449B00124A13441846BD
:105A1000FEF7BEFC7B6801337B607B68372BEFD9D8
:105A20000D48FEF7B5FC0D48FEF7B2FC0C48FEF73A
:105A3000AFFC0C48FEF7ACFC0B48FEF7A9FC0B4B87
:105A4000054A1A600A4B054A1A6000BF0837BD466E
:105A500080BD00BF6C090020CC0D0020E00D0020AF
:105A6000FC0D0020100E0020280E0020F40D002058
:105A7000F80D002080B582B000AF19E000F076FD8F
:105A8000104BDB68DB687B607B6804331846FEF7ED
:105A900005FD0D4B1B68013B0B4A13600B4B1B684C
:105AA000013B0A4A136000F091FD786800F010F89D
:105AB000064B1B68002BE1D100BF00BF0837BD4675
:105AC00080BD00BF100E00203C0E0020240E0020E0
:105AD00080B584B000AF78607B685433184601F01D
